{
  "contractName": "LuxChain",
  "abi": [
    {
      "inputs": [
        {
          "internalType": "string",
          "name": "_name",
          "type": "string"
        },
        {
          "internalType": "string",
          "name": "_symbol",
          "type": "string"
        }
      ],
      "stateMutability": "nonpayable",
      "type": "constructor"
    },
    {
      "anonymous": false,
      "inputs": [
        {
          "indexed": true,
          "internalType": "address",
          "name": "owner",
          "type": "address"
        },
        {
          "indexed": true,
          "internalType": "address",
          "name": "approved",
          "type": "address"
        },
        {
          "indexed": true,
          "internalType": "uint256",
          "name": "tokenId",
          "type": "uint256"
        }
      ],
      "name": "Approval",
      "type": "event"
    },
    {
      "anonymous": false,
      "inputs": [
        {
          "indexed": true,
          "internalType": "address",
          "name": "owner",
          "type": "address"
        },
        {
          "indexed": true,
          "internalType": "address",
          "name": "operator",
          "type": "address"
        },
        {
          "indexed": false,
          "internalType": "bool",
          "name": "approved",
          "type": "bool"
        }
      ],
      "name": "ApprovalForAll",
      "type": "event"
    },
    {
      "anonymous": false,
      "inputs": [
        {
          "indexed": true,
          "internalType": "address",
          "name": "from",
          "type": "address"
        },
        {
          "indexed": true,
          "internalType": "address",
          "name": "to",
          "type": "address"
        },
        {
          "indexed": true,
          "internalType": "uint256",
          "name": "tokenId",
          "type": "uint256"
        }
      ],
      "name": "Transfer",
      "type": "event"
    },
    {
      "anonymous": false,
      "inputs": [
        {
          "indexed": false,
          "internalType": "address",
          "name": "_to",
          "type": "address"
        },
        {
          "indexed": false,
          "internalType": "string",
          "name": "_serNumber",
          "type": "string"
        },
        {
          "indexed": false,
          "internalType": "uint256",
          "name": "tokenId",
          "type": "uint256"
        }
      ],
      "name": "mintToken",
      "type": "event"
    },
    {
      "anonymous": false,
      "inputs": [
        {
          "indexed": false,
          "internalType": "address",
          "name": "_from",
          "type": "address"
        },
        {
          "indexed": false,
          "internalType": "address",
          "name": "_to",
          "type": "address"
        },
        {
          "indexed": false,
          "internalType": "uint256",
          "name": "_tokenId",
          "type": "uint256"
        }
      ],
      "name": "transferEvent",
      "type": "event"
    },
    {
      "inputs": [
        {
          "internalType": "address",
          "name": "to",
          "type": "address"
        },
        {
          "internalType": "uint256",
          "name": "tokenId",
          "type": "uint256"
        }
      ],
      "name": "approve",
      "outputs": [],
      "stateMutability": "nonpayable",
      "type": "function"
    },
    {
      "inputs": [
        {
          "internalType": "address",
          "name": "owner",
          "type": "address"
        }
      ],
      "name": "balanceOf",
      "outputs": [
        {
          "internalType": "uint256",
          "name": "",
          "type": "uint256"
        }
      ],
      "stateMutability": "view",
      "type": "function",
      "constant": true
    },
    {
      "inputs": [
        {
          "internalType": "uint256",
          "name": "tokenId",
          "type": "uint256"
        }
      ],
      "name": "getApproved",
      "outputs": [
        {
          "internalType": "address",
          "name": "",
          "type": "address"
        }
      ],
      "stateMutability": "view",
      "type": "function",
      "constant": true
    },
    {
      "inputs": [
        {
          "internalType": "address",
          "name": "owner",
          "type": "address"
        },
        {
          "internalType": "address",
          "name": "operator",
          "type": "address"
        }
      ],
      "name": "isApprovedForAll",
      "outputs": [
        {
          "internalType": "bool",
          "name": "",
          "type": "bool"
        }
      ],
      "stateMutability": "view",
      "type": "function",
      "constant": true
    },
    {
      "inputs": [],
      "name": "name",
      "outputs": [
        {
          "internalType": "string",
          "name": "",
          "type": "string"
        }
      ],
      "stateMutability": "view",
      "type": "function",
      "constant": true
    },
    {
      "inputs": [
        {
          "internalType": "uint256",
          "name": "tokenId",
          "type": "uint256"
        }
      ],
      "name": "ownerOf",
      "outputs": [
        {
          "internalType": "address",
          "name": "",
          "type": "address"
        }
      ],
      "stateMutability": "view",
      "type": "function",
      "constant": true
    },
    {
      "inputs": [
        {
          "internalType": "address",
          "name": "from",
          "type": "address"
        },
        {
          "internalType": "address",
          "name": "to",
          "type": "address"
        },
        {
          "internalType": "uint256",
          "name": "tokenId",
          "type": "uint256"
        }
      ],
      "name": "safeTransferFrom",
      "outputs": [],
      "stateMutability": "nonpayable",
      "type": "function"
    },
    {
      "inputs": [
        {
          "internalType": "address",
          "name": "from",
          "type": "address"
        },
        {
          "internalType": "address",
          "name": "to",
          "type": "address"
        },
        {
          "internalType": "uint256",
          "name": "tokenId",
          "type": "uint256"
        },
        {
          "internalType": "bytes",
          "name": "_data",
          "type": "bytes"
        }
      ],
      "name": "safeTransferFrom",
      "outputs": [],
      "stateMutability": "nonpayable",
      "type": "function"
    },
    {
      "inputs": [
        {
          "internalType": "address",
          "name": "operator",
          "type": "address"
        },
        {
          "internalType": "bool",
          "name": "approved",
          "type": "bool"
        }
      ],
      "name": "setApprovalForAll",
      "outputs": [],
      "stateMutability": "nonpayable",
      "type": "function"
    },
    {
      "inputs": [
        {
          "internalType": "bytes4",
          "name": "interfaceId",
          "type": "bytes4"
        }
      ],
      "name": "supportsInterface",
      "outputs": [
        {
          "internalType": "bool",
          "name": "",
          "type": "bool"
        }
      ],
      "stateMutability": "view",
      "type": "function",
      "constant": true
    },
    {
      "inputs": [],
      "name": "symbol",
      "outputs": [
        {
          "internalType": "string",
          "name": "",
          "type": "string"
        }
      ],
      "stateMutability": "view",
      "type": "function",
      "constant": true
    },
    {
      "inputs": [
        {
          "internalType": "uint256",
          "name": "tokenId",
          "type": "uint256"
        }
      ],
      "name": "tokenURI",
      "outputs": [
        {
          "internalType": "string",
          "name": "",
          "type": "string"
        }
      ],
      "stateMutability": "view",
      "type": "function",
      "constant": true
    },
    {
      "inputs": [
        {
          "internalType": "address",
          "name": "_to",
          "type": "address"
        },
        {
          "internalType": "string",
          "name": "_serialNumber",
          "type": "string"
        },
        {
          "internalType": "string",
          "name": "_name",
          "type": "string"
        }
      ],
      "name": "mint",
      "outputs": [],
      "stateMutability": "nonpayable",
      "type": "function"
    },
    {
      "inputs": [
        {
          "internalType": "address",
          "name": "_from",
          "type": "address"
        },
        {
          "internalType": "address",
          "name": "_to",
          "type": "address"
        },
        {
          "internalType": "uint256",
          "name": "_tokenId",
          "type": "uint256"
        }
      ],
      "name": "transferFrom",
      "outputs": [],
      "stateMutability": "nonpayable",
      "type": "function"
    },
    {
      "inputs": [
        {
          "internalType": "uint256",
          "name": "_tokenId",
          "type": "uint256"
        },
        {
          "internalType": "string",
          "name": "_information",
          "type": "string"
        }
      ],
      "name": "updateInformation",
      "outputs": [],
      "stateMutability": "nonpayable",
      "type": "function"
    },
    {
      "inputs": [
        {
          "internalType": "uint256",
          "name": "_tokenId",
          "type": "uint256"
        }
      ],
      "name": "viewSerialNumber",
      "outputs": [
        {
          "internalType": "string",
          "name": "",
          "type": "string"
        }
      ],
      "stateMutability": "view",
      "type": "function",
      "constant": true
    },
    {
      "inputs": [
        {
          "internalType": "uint256",
          "name": "_tokenId",
          "type": "uint256"
        }
      ],
      "name": "viewName",
      "outputs": [
        {
          "internalType": "string",
          "name": "",
          "type": "string"
        }
      ],
      "stateMutability": "view",
      "type": "function",
      "constant": true
    },
    {
      "inputs": [
        {
          "internalType": "string",
          "name": "_serialNumber",
          "type": "string"
        }
      ],
      "name": "viewTokenId",
      "outputs": [
        {
          "internalType": "uint256",
          "name": "",
          "type": "uint256"
        }
      ],
      "stateMutability": "view",
      "type": "function",
      "constant": true
    },
    {
      "inputs": [],
      "name": "getTotalSupply",
      "outputs": [
        {
          "internalType": "uint256",
          "name": "",
          "type": "uint256"
        }
      ],
      "stateMutability": "view",
      "type": "function",
      "constant": true
    }
  ],
  "bytecode": "0x608060405233600660006101000a81548173ffffffffffffffffffffffffffffffffffffffff021916908373ffffffffffffffffffffffffffffffffffffffff1602179055503480156200005257600080fd5b506040516200352a3803806200352a833981810160405281019062000078919062000303565b8181816000908051906020019062000092929190620000b6565b508060019080519060200190620000ab929190620000b6565b5050505050620003ed565b828054620000c490620003b7565b90600052602060002090601f016020900481019282620000e8576000855562000134565b82601f106200010357805160ff191683800117855562000134565b8280016001018555821562000134579182015b828111156200013357825182559160200191906001019062000116565b5b50905062000143919062000147565b5090565b5b808211156200016257600081600090555060010162000148565b5090565b6000604051905090565b600080fd5b600080fd5b600080fd5b600080fd5b6000601f19601f8301169050919050565b7f4e487b7100000000000000000000000000000000000000000000000000000000600052604160045260246000fd5b620001cf8262000184565b810181811067ffffffffffffffff82111715620001f157620001f062000195565b5b80604052505050565b60006200020662000166565b9050620002148282620001c4565b919050565b600067ffffffffffffffff82111562000237576200023662000195565b5b620002428262000184565b9050602081019050919050565b60005b838110156200026f57808201518184015260208101905062000252565b838111156200027f576000848401525b50505050565b60006200029c620002968462000219565b620001fa565b905082815260208101848484011115620002bb57620002ba6200017f565b5b620002c88482856200024f565b509392505050565b600082601f830112620002e857620002e76200017a565b5b8151620002fa84826020860162000285565b91505092915050565b600080604083850312156200031d576200031c62000170565b5b600083015167ffffffffffffffff8111156200033e576200033d62000175565b5b6200034c85828601620002d0565b925050602083015167ffffffffffffffff81111562000370576200036f62000175565b5b6200037e85828601620002d0565b9150509250929050565b7f4e487b7100000000000000000000000000000000000000000000000000000000600052602260045260246000fd5b60006002820490506001821680620003d057607f821691505b60208210811415620003e757620003e662000388565b5b50919050565b61312d80620003fd6000396000f3fe608060405234801561001057600080fd5b50600436106101215760003560e01c80636352211e116100ad578063b88d4fde11610071578063b88d4fde1461032a578063c4e41b2214610346578063c87b56dd14610364578063d340c3c514610394578063e985e9c5146103c457610121565b80636352211e1461027457806370a08231146102a457806395d89b41146102d457806399071190146102f2578063a22cb4651461030e57610121565b80631b868d00116100f45780631b868d00146101c0578063207b8509146101f057806323b872dd1461022057806342842e0e1461023c5780634f5e93761461025857610121565b806301ffc9a71461012657806306fdde0314610156578063081812fc14610174578063095ea7b3146101a4575b600080fd5b610140600480360381019061013b9190611d7b565b6103f4565b60405161014d9190611dc3565b60405180910390f35b61015e6104d6565b60405161016b9190611e77565b60405180910390f35b61018e60048036038101906101899190611ecf565b610568565b60405161019b9190611f3d565b60405180910390f35b6101be60048036038101906101b99190611f84565b6105ed565b005b6101da60048036038101906101d59190611ecf565b610705565b6040516101e79190611e77565b60405180910390f35b61020a600480360381019061020591906120f9565b6107ad565b6040516102179190612151565b60405180910390f35b61023a6004803603810190610235919061216c565b6107d5565b005b6102566004803603810190610251919061216c565b61092a565b005b610272600480360381019061026d91906121bf565b61094a565b005b61028e60048036038101906102899190611ecf565b610a49565b60405161029b9190611f3d565b60405180910390f35b6102be60048036038101906102b9919061221b565b610afb565b6040516102cb9190612151565b60405180910390f35b6102dc610bb3565b6040516102e99190611e77565b60405180910390f35b61030c60048036038101906103079190612248565b610c45565b005b610328600480360381019061032391906122ff565b610dfb565b005b610344600480360381019061033f91906123e0565b610e11565b005b61034e610e73565b60405161035b9190612151565b60405180910390f35b61037e60048036038101906103799190611ecf565b610e7d565b60405161038b9190611e77565b60405180910390f35b6103ae60048036038101906103a99190611ecf565b610f24565b6040516103bb9190611e77565b60405180910390f35b6103de60048036038101906103d99190612463565b610fcc565b6040516103eb9190611dc3565b60405180910390f35b60007f80ac58cd000000000000000000000000000000000000000000000000000000007bffffffffffffffffffffffffffffffffffffffffffffffffffffffff1916827bffffffffffffffffffffffffffffffffffffffffffffffffffffffff191614806104bf57507f5b5e139f000000000000000000000000000000000000000000000000000000007bffffffffffffffffffffffffffffffffffffffffffffffffffffffff1916827bffffffffffffffffffffffffffffffffffffffffffffffffffffffff1916145b806104cf57506104ce82611060565b5b9050919050565b6060600080546104e5906124d2565b80601f0160208091040260200160405190810160405280929190818152602001828054610511906124d2565b801561055e5780601f106105335761010080835404028352916020019161055e565b820191906000526020600020905b81548152906001019060200180831161054157829003601f168201915b5050505050905090565b6000610573826110ca565b6105b2576040517f08c379a00000000000000000000000000000000000000000000000000000000081526004016105a990612576565b60405180910390fd5b6004600083815260200190815260200160002060009054906101000a900473ffffffffffffffffffffffffffffffffffffffff169050919050565b60006105f882610a49565b90508073ffffffffffffffffffffffffffffffffffffffff168373ffffffffffffffffffffffffffffffffffffffff161415610669576040517f08c379a000000000000000000000000000000000000000000000000000000000815260040161066090612608565b60405180910390fd5b8073ffffffffffffffffffffffffffffffffffffffff16610688611136565b73ffffffffffffffffffffffffffffffffffffffff1614806106b757506106b6816106b1611136565b610fcc565b5b6106f6576040517f08c379a00000000000000000000000000000000000000000000000000000000081526004016106ed9061269a565b60405180910390fd5b610700838361113e565b505050565b6060600860008381526020019081526020016000206001018054610728906124d2565b80601f0160208091040260200160405190810160405280929190818152602001828054610754906124d2565b80156107a15780601f10610776576101008083540402835291602001916107a1565b820191906000526020600020905b81548152906001019060200180831161078457829003601f168201915b50505050509050919050565b60006009826040516107bf91906126f6565b9081526020016040518091039020549050919050565b80600660009054906101000a900473ffffffffffffffffffffffffffffffffffffffff1673ffffffffffffffffffffffffffffffffffffffff163373ffffffffffffffffffffffffffffffffffffffff161480610865575061083681610a49565b73ffffffffffffffffffffffffffffffffffffffff163373ffffffffffffffffffffffffffffffffffffffff16145b6108a4576040517f08c379a000000000000000000000000000000000000000000000000000000000815260040161089b90612759565b60405180910390fd5b6108af8484846111f7565b604051806020016040528060008152506008600084815260200190815260200160002060020190805190602001906108e8929190611c6c565b507f5d439cf3a1f6215b41908e5b0b300f39679a3ff1cc010691c1d4ec4d0e2a4ebb84848460405161091c93929190612779565b60405180910390a150505050565b61094583838360405180602001604052806000815250610e11565b505050565b81600660009054906101000a900473ffffffffffffffffffffffffffffffffffffffff1673ffffffffffffffffffffffffffffffffffffffff163373ffffffffffffffffffffffffffffffffffffffff1614806109da57506109ab81610a49565b73ffffffffffffffffffffffffffffffffffffffff163373ffffffffffffffffffffffffffffffffffffffff16145b610a19576040517f08c379a0000000000000000000000000000000000000000000000000000000008152600401610a1090612759565b60405180910390fd5b81600860008581526020019081526020016000206002019080519060200190610a43929190611c6c565b50505050565b6000806002600084815260200190815260200160002060009054906101000a900473ffffffffffffffffffffffffffffffffffffffff169050600073ffffffffffffffffffffffffffffffffffffffff168173ffffffffffffffffffffffffffffffffffffffff161415610af2576040517f08c379a0000000000000000000000000000000000000000000000000000000008152600401610ae990612822565b60405180910390fd5b80915050919050565b60008073ffffffffffffffffffffffffffffffffffffffff168273ffffffffffffffffffffffffffffffffffffffff161415610b6c576040517f08c379a0000000000000000000000000000000000000000000000000000000008152600401610b63906128b4565b60405180910390fd5b600360008373ffffffffffffffffffffffffffffffffffffffff1673ffffffffffffffffffffffffffffffffffffffff168152602001908152602001600020549050919050565b606060018054610bc2906124d2565b80601f0160208091040260200160405190810160405280929190818152602001828054610bee906124d2565b8015610c3b5780601f10610c1057610100808354040283529160200191610c3b565b820191906000526020600020905b815481529060010190602001808311610c1e57829003601f168201915b5050505050905090565b600660009054906101000a900473ffffffffffffffffffffffffffffffffffffffff1673ffffffffffffffffffffffffffffffffffffffff163373ffffffffffffffffffffffffffffffffffffffff1614610cd5576040517f08c379a0000000000000000000000000000000000000000000000000000000008152600401610ccc90612920565b60405180910390fd5b610ce183600754611257565b60006040518060600160405280848152602001838152602001604051806020016040528060008152508152509050806008600060075481526020019081526020016000206000820151816000019080519060200190610d41929190611c6c565b506020820151816001019080519060200190610d5e929190611c6c565b506040820151816002019080519060200190610d7b929190611c6c565b5090505060076000815480929190610d929061296f565b91905055600984604051610da691906126f6565b9081526020016040518091039020819055507f611b2fed7af3df9474d8f5e903e1010a44fc43fded2f4cde0cc65a1c93e779828484600754604051610ded939291906129b8565b60405180910390a150505050565b610e0d610e06611136565b8383611431565b5050565b610e22610e1c611136565b8361159e565b610e61576040517f08c379a0000000000000000000000000000000000000000000000000000000008152600401610e5890612a68565b60405180910390fd5b610e6d8484848461167c565b50505050565b6000600754905090565b6060610e88826110ca565b610ec7576040517f08c379a0000000000000000000000000000000000000000000000000000000008152600401610ebe90612afa565b60405180910390fd5b6000610ed16116d8565b90506000815111610ef15760405180602001604052806000815250610f1c565b80610efb846116ef565b604051602001610f0c929190612b1a565b6040516020818303038152906040525b915050919050565b6060600860008381526020019081526020016000206000018054610f47906124d2565b80601f0160208091040260200160405190810160405280929190818152602001828054610f73906124d2565b8015610fc05780601f10610f9557610100808354040283529160200191610fc0565b820191906000526020600020905b815481529060010190602001808311610fa357829003601f168201915b50505050509050919050565b6000600560008473ffffffffffffffffffffffffffffffffffffffff1673ffffffffffffffffffffffffffffffffffffffff16815260200190815260200160002060008373ffffffffffffffffffffffffffffffffffffffff1673ffffffffffffffffffffffffffffffffffffffff16815260200190815260200160002060009054906101000a900460ff16905092915050565b60007f01ffc9a7000000000000000000000000000000000000000000000000000000007bffffffffffffffffffffffffffffffffffffffffffffffffffffffff1916827bffffffffffffffffffffffffffffffffffffffffffffffffffffffff1916149050919050565b60008073ffffffffffffffffffffffffffffffffffffffff166002600084815260200190815260200160002060009054906101000a900473ffffffffffffffffffffffffffffffffffffffff1673ffffffffffffffffffffffffffffffffffffffff1614159050919050565b600033905090565b816004600083815260200190815260200160002060006101000a81548173ffffffffffffffffffffffffffffffffffffffff021916908373ffffffffffffffffffffffffffffffffffffffff160217905550808273ffffffffffffffffffffffffffffffffffffffff166111b183610a49565b73ffffffffffffffffffffffffffffffffffffffff167f8c5be1e5ebec7d5bd14f71427d1e84f3dd0314c0f7b2291e5b200ac8c7c3b92560405160405180910390a45050565b611208611202611136565b8261159e565b611247576040517f08c379a000000000000000000000000000000000000000000000000000000000815260040161123e90612a68565b60405180910390fd5b611252838383611850565b505050565b600073ffffffffffffffffffffffffffffffffffffffff168273ffffffffffffffffffffffffffffffffffffffff1614156112c7576040517f08c379a00000000000000000000000000000000000000000000000000000000081526004016112be90612b8a565b60405180910390fd5b6112d0816110ca565b15611310576040517f08c379a000000000000000000000000000000000000000000000000000000000815260040161130790612bf6565b60405180910390fd5b61131c60008383611ab7565b6001600360008473ffffffffffffffffffffffffffffffffffffffff1673ffffffffffffffffffffffffffffffffffffffff168152602001908152602001600020600082825461136c9190612c16565b92505081905550816002600083815260200190815260200160002060006101000a81548173ffffffffffffffffffffffffffffffffffffffff021916908373ffffffffffffffffffffffffffffffffffffffff160217905550808273ffffffffffffffffffffffffffffffffffffffff16600073ffffffffffffffffffffffffffffffffffffffff167fddf252ad1be2c89b69c2b068fc378daa952ba7f163c4a11628f55a4df523b3ef60405160405180910390a461142d60008383611abc565b5050565b8173ffffffffffffffffffffffffffffffffffffffff168373ffffffffffffffffffffffffffffffffffffffff1614156114a0576040517f08c379a000000000000000000000000000000000000000000000000000000000815260040161149790612cb8565b60405180910390fd5b80600560008573ffffffffffffffffffffffffffffffffffffffff1673ffffffffffffffffffffffffffffffffffffffff16815260200190815260200160002060008473ffffffffffffffffffffffffffffffffffffffff1673ffffffffffffffffffffffffffffffffffffffff16815260200190815260200160002060006101000a81548160ff0219169083151502179055508173ffffffffffffffffffffffffffffffffffffffff168373ffffffffffffffffffffffffffffffffffffffff167f17307eab39ab6107e8899845ad3d59bd9653f200f220920489ca2b5937696c31836040516115919190611dc3565b60405180910390a3505050565b60006115a9826110ca565b6115e8576040517f08c379a00000000000000000000000000000000000000000000000000000000081526004016115df90612d4a565b60405180910390fd5b60006115f383610a49565b90508073ffffffffffffffffffffffffffffffffffffffff168473ffffffffffffffffffffffffffffffffffffffff16148061166257508373ffffffffffffffffffffffffffffffffffffffff1661164a84610568565b73ffffffffffffffffffffffffffffffffffffffff16145b8061167357506116728185610fcc565b5b91505092915050565b611687848484611850565b61169384848484611ac1565b6116d2576040517f08c379a00000000000000000000000000000000000000000000000000000000081526004016116c990612ddc565b60405180910390fd5b50505050565b606060405180602001604052806000815250905090565b60606000821415611737576040518060400160405280600181526020017f3000000000000000000000000000000000000000000000000000000000000000815250905061184b565b600082905060005b600082146117695780806117529061296f565b915050600a826117629190612e2b565b915061173f565b60008167ffffffffffffffff81111561178557611784611fce565b5b6040519080825280601f01601f1916602001820160405280156117b75781602001600182028036833780820191505090505b5090505b60008514611844576001826117d09190612e5c565b9150600a856117df9190612e90565b60306117eb9190612c16565b60f81b81838151811061180157611800612ec1565b5b60200101907effffffffffffffffffffffffffffffffffffffffffffffffffffffffffffff1916908160001a905350600a8561183d9190612e2b565b94506117bb565b8093505050505b919050565b8273ffffffffffffffffffffffffffffffffffffffff1661187082610a49565b73ffffffffffffffffffffffffffffffffffffffff16146118c6576040517f08c379a00000000000000000000000000000000000000000000000000000000081526004016118bd90612f62565b60405180910390fd5b600073ffffffffffffffffffffffffffffffffffffffff168273ffffffffffffffffffffffffffffffffffffffff161415611936576040517f08c379a000000000000000000000000000000000000000000000000000000000815260040161192d90612ff4565b60405180910390fd5b611941838383611ab7565b61194c60008261113e565b6001600360008573ffffffffffffffffffffffffffffffffffffffff1673ffffffffffffffffffffffffffffffffffffffff168152602001908152602001600020600082825461199c9190612e5c565b925050819055506001600360008473ffffffffffffffffffffffffffffffffffffffff1673ffffffffffffffffffffffffffffffffffffffff16815260200190815260200160002060008282546119f39190612c16565b92505081905550816002600083815260200190815260200160002060006101000a81548173ffffffffffffffffffffffffffffffffffffffff021916908373ffffffffffffffffffffffffffffffffffffffff160217905550808273ffffffffffffffffffffffffffffffffffffffff168473ffffffffffffffffffffffffffffffffffffffff167fddf252ad1be2c89b69c2b068fc378daa952ba7f163c4a11628f55a4df523b3ef60405160405180910390a4611ab2838383611abc565b505050565b505050565b505050565b6000611ae28473ffffffffffffffffffffffffffffffffffffffff16611c49565b15611c3c578373ffffffffffffffffffffffffffffffffffffffff1663150b7a02611b0b611136565b8786866040518563ffffffff1660e01b8152600401611b2d9493929190613069565b6020604051808303816000875af1925050508015611b6957506040513d601f19601f82011682018060405250810190611b6691906130ca565b60015b611bec573d8060008114611b99576040519150601f19603f3d011682016040523d82523d6000602084013e611b9e565b606091505b50600081511415611be4576040517f08c379a0000000000000000000000000000000000000000000000000000000008152600401611bdb90612ddc565b60405180910390fd5b805181602001fd5b63150b7a0260e01b7bffffffffffffffffffffffffffffffffffffffffffffffffffffffff1916817bffffffffffffffffffffffffffffffffffffffffffffffffffffffff191614915050611c41565b600190505b949350505050565b6000808273ffffffffffffffffffffffffffffffffffffffff163b119050919050565b828054611c78906124d2565b90600052602060002090601f016020900481019282611c9a5760008555611ce1565b82601f10611cb357805160ff1916838001178555611ce1565b82800160010185558215611ce1579182015b82811115611ce0578251825591602001919060010190611cc5565b5b509050611cee9190611cf2565b5090565b5b80821115611d0b576000816000905550600101611cf3565b5090565b6000604051905090565b600080fd5b600080fd5b60007fffffffff0000000000000000000000000000000000000000000000000000000082169050919050565b611d5881611d23565b8114611d6357600080fd5b50565b600081359050611d7581611d4f565b92915050565b600060208284031215611d9157611d90611d19565b5b6000611d9f84828501611d66565b91505092915050565b60008115159050919050565b611dbd81611da8565b82525050565b6000602082019050611dd86000830184611db4565b92915050565b600081519050919050565b600082825260208201905092915050565b60005b83811015611e18578082015181840152602081019050611dfd565b83811115611e27576000848401525b50505050565b6000601f19601f8301169050919050565b6000611e4982611dde565b611e538185611de9565b9350611e63818560208601611dfa565b611e6c81611e2d565b840191505092915050565b60006020820190508181036000830152611e918184611e3e565b905092915050565b6000819050919050565b611eac81611e99565b8114611eb757600080fd5b50565b600081359050611ec981611ea3565b92915050565b600060208284031215611ee557611ee4611d19565b5b6000611ef384828501611eba565b91505092915050565b600073ffffffffffffffffffffffffffffffffffffffff82169050919050565b6000611f2782611efc565b9050919050565b611f3781611f1c565b82525050565b6000602082019050611f526000830184611f2e565b92915050565b611f6181611f1c565b8114611f6c57600080fd5b50565b600081359050611f7e81611f58565b92915050565b60008060408385031215611f9b57611f9a611d19565b5b6000611fa985828601611f6f565b9250506020611fba85828601611eba565b9150509250929050565b600080fd5b600080fd5b7f4e487b7100000000000000000000000000000000000000000000000000000000600052604160045260246000fd5b61200682611e2d565b810181811067ffffffffffffffff8211171561202557612024611fce565b5b80604052505050565b6000612038611d0f565b90506120448282611ffd565b919050565b600067ffffffffffffffff82111561206457612063611fce565b5b61206d82611e2d565b9050602081019050919050565b82818337600083830152505050565b600061209c61209784612049565b61202e565b9050828152602081018484840111156120b8576120b7611fc9565b5b6120c384828561207a565b509392505050565b600082601f8301126120e0576120df611fc4565b5b81356120f0848260208601612089565b91505092915050565b60006020828403121561210f5761210e611d19565b5b600082013567ffffffffffffffff81111561212d5761212c611d1e565b5b612139848285016120cb565b91505092915050565b61214b81611e99565b82525050565b60006020820190506121666000830184612142565b92915050565b60008060006060848603121561218557612184611d19565b5b600061219386828701611f6f565b93505060206121a486828701611f6f565b92505060406121b586828701611eba565b9150509250925092565b600080604083850312156121d6576121d5611d19565b5b60006121e485828601611eba565b925050602083013567ffffffffffffffff81111561220557612204611d1e565b5b612211858286016120cb565b9150509250929050565b60006020828403121561223157612230611d19565b5b600061223f84828501611f6f565b91505092915050565b60008060006060848603121561226157612260611d19565b5b600061226f86828701611f6f565b935050602084013567ffffffffffffffff8111156122905761228f611d1e565b5b61229c868287016120cb565b925050604084013567ffffffffffffffff8111156122bd576122bc611d1e565b5b6122c9868287016120cb565b9150509250925092565b6122dc81611da8565b81146122e757600080fd5b50565b6000813590506122f9816122d3565b92915050565b6000806040838503121561231657612315611d19565b5b600061232485828601611f6f565b9250506020612335858286016122ea565b9150509250929050565b600067ffffffffffffffff82111561235a57612359611fce565b5b61236382611e2d565b9050602081019050919050565b600061238361237e8461233f565b61202e565b90508281526020810184848401111561239f5761239e611fc9565b5b6123aa84828561207a565b509392505050565b600082601f8301126123c7576123c6611fc4565b5b81356123d7848260208601612370565b91505092915050565b600080600080608085870312156123fa576123f9611d19565b5b600061240887828801611f6f565b945050602061241987828801611f6f565b935050604061242a87828801611eba565b925050606085013567ffffffffffffffff81111561244b5761244a611d1e565b5b612457878288016123b2565b91505092959194509250565b6000806040838503121561247a57612479611d19565b5b600061248885828601611f6f565b925050602061249985828601611f6f565b9150509250929050565b7f4e487b7100000000000000000000000000000000000000000000000000000000600052602260045260246000fd5b600060028204905060018216806124ea57607f821691505b602082108114156124fe576124fd6124a3565b5b50919050565b7f4552433732313a20617070726f76656420717565727920666f72206e6f6e657860008201527f697374656e7420746f6b656e0000000000000000000000000000000000000000602082015250565b6000612560602c83611de9565b915061256b82612504565b604082019050919050565b6000602082019050818103600083015261258f81612553565b9050919050565b7f4552433732313a20617070726f76616c20746f2063757272656e74206f776e6560008201527f7200000000000000000000000000000000000000000000000000000000000000602082015250565b60006125f2602183611de9565b91506125fd82612596565b604082019050919050565b60006020820190508181036000830152612621816125e5565b9050919050565b7f4552433732313a20617070726f76652063616c6c6572206973206e6f74206f7760008201527f6e6572206e6f7220617070726f76656420666f7220616c6c0000000000000000602082015250565b6000612684603883611de9565b915061268f82612628565b604082019050919050565b600060208201905081810360008301526126b381612677565b9050919050565b600081905092915050565b60006126d082611dde565b6126da81856126ba565b93506126ea818560208601611dfa565b80840191505092915050565b600061270282846126c5565b915081905092915050565b7f41646d696e206f72206f776e6572206f6e6c792066756e6374696f6e00000000600082015250565b6000612743601c83611de9565b915061274e8261270d565b602082019050919050565b6000602082019050818103600083015261277281612736565b9050919050565b600060608201905061278e6000830186611f2e565b61279b6020830185611f2e565b6127a86040830184612142565b949350505050565b7f4552433732313a206f776e657220717565727920666f72206e6f6e657869737460008201527f656e7420746f6b656e0000000000000000000000000000000000000000000000602082015250565b600061280c602983611de9565b9150612817826127b0565b604082019050919050565b6000602082019050818103600083015261283b816127ff565b9050919050565b7f4552433732313a2062616c616e636520717565727920666f7220746865207a6560008201527f726f206164647265737300000000000000000000000000000000000000000000602082015250565b600061289e602a83611de9565b91506128a982612842565b604082019050919050565b600060208201905081810360008301526128cd81612891565b9050919050565b7f41646d696e206f6e6c792066756e6374696f6e00000000000000000000000000600082015250565b600061290a601383611de9565b9150612915826128d4565b602082019050919050565b60006020820190508181036000830152612939816128fd565b9050919050565b7f4e487b7100000000000000000000000000000000000000000000000000000000600052601160045260246000fd5b600061297a82611e99565b91507fffffffffffffffffffffffffffffffffffffffffffffffffffffffffffffffff8214156129ad576129ac612940565b5b600182019050919050565b60006060820190506129cd6000830186611f2e565b81810360208301526129df8185611e3e565b90506129ee6040830184612142565b949350505050565b7f4552433732313a207472616e736665722063616c6c6572206973206e6f74206f60008201527f776e6572206e6f7220617070726f766564000000000000000000000000000000602082015250565b6000612a52603183611de9565b9150612a5d826129f6565b604082019050919050565b60006020820190508181036000830152612a8181612a45565b9050919050565b7f4552433732314d657461646174613a2055524920717565727920666f72206e6f60008201527f6e6578697374656e7420746f6b656e0000000000000000000000000000000000602082015250565b6000612ae4602f83611de9565b9150612aef82612a88565b604082019050919050565b60006020820190508181036000830152612b1381612ad7565b9050919050565b6000612b2682856126c5565b9150612b3282846126c5565b91508190509392505050565b7f4552433732313a206d696e7420746f20746865207a65726f2061646472657373600082015250565b6000612b74602083611de9565b9150612b7f82612b3e565b602082019050919050565b60006020820190508181036000830152612ba381612b67565b9050919050565b7f4552433732313a20746f6b656e20616c7265616479206d696e74656400000000600082015250565b6000612be0601c83611de9565b9150612beb82612baa565b602082019050919050565b60006020820190508181036000830152612c0f81612bd3565b9050919050565b6000612c2182611e99565b9150612c2c83611e99565b9250827fffffffffffffffffffffffffffffffffffffffffffffffffffffffffffffffff03821115612c6157612c60612940565b5b828201905092915050565b7f4552433732313a20617070726f766520746f2063616c6c657200000000000000600082015250565b6000612ca2601983611de9565b9150612cad82612c6c565b602082019050919050565b60006020820190508181036000830152612cd181612c95565b9050919050565b7f4552433732313a206f70657261746f7220717565727920666f72206e6f6e657860008201527f697374656e7420746f6b656e0000000000000000000000000000000000000000602082015250565b6000612d34602c83611de9565b9150612d3f82612cd8565b604082019050919050565b60006020820190508181036000830152612d6381612d27565b9050919050565b7f4552433732313a207472616e7366657220746f206e6f6e20455243373231526560008201527f63656976657220696d706c656d656e7465720000000000000000000000000000602082015250565b6000612dc6603283611de9565b9150612dd182612d6a565b604082019050919050565b60006020820190508181036000830152612df581612db9565b9050919050565b7f4e487b7100000000000000000000000000000000000000000000000000000000600052601260045260246000fd5b6000612e3682611e99565b9150612e4183611e99565b925082612e5157612e50612dfc565b5b828204905092915050565b6000612e6782611e99565b9150612e7283611e99565b925082821015612e8557612e84612940565b5b828203905092915050565b6000612e9b82611e99565b9150612ea683611e99565b925082612eb657612eb5612dfc565b5b828206905092915050565b7f4e487b7100000000000000000000000000000000000000000000000000000000600052603260045260246000fd5b7f4552433732313a207472616e736665722066726f6d20696e636f72726563742060008201527f6f776e6572000000000000000000000000000000000000000000000000000000602082015250565b6000612f4c602583611de9565b9150612f5782612ef0565b604082019050919050565b60006020820190508181036000830152612f7b81612f3f565b9050919050565b7f4552433732313a207472616e7366657220746f20746865207a65726f2061646460008201527f7265737300000000000000000000000000000000000000000000000000000000602082015250565b6000612fde602483611de9565b9150612fe982612f82565b604082019050919050565b6000602082019050818103600083015261300d81612fd1565b9050919050565b600081519050919050565b600082825260208201905092915050565b600061303b82613014565b613045818561301f565b9350613055818560208601611dfa565b61305e81611e2d565b840191505092915050565b600060808201905061307e6000830187611f2e565b61308b6020830186611f2e565b6130986040830185612142565b81810360608301526130aa8184613030565b905095945050505050565b6000815190506130c481611d4f565b92915050565b6000602082840312156130e0576130df611d19565b5b60006130ee848285016130b5565b9150509291505056fea2646970667358221220aa04392ba3f0036abfede98bfc0fa16ac21e6b4375d136f5b7cc18fe388cdd3a64736f6c634300080b0033",
  "immutableReferences": {},
  "source": "//SPDX-License-Identifier: MIT\npragma solidity ^0.8.11;\nimport \"@openzeppelin/contracts/token/ERC721/ERC721.sol\";\n\ncontract LuxChain is ERC721 {\n    address _owner = msg.sender;\n    uint256 _supply;\n\n    mapping(uint256 => Token) tokens;\n    mapping(string => uint256) serialNumbers;\n\n    event mintToken(address _to, string _serNumber, uint256 tokenId);\n    event transferEvent(address _from, address _to, uint256 _tokenId);\n\n    constructor(string memory _name, string memory _symbol)\n        ERC721(_name, _symbol)\n    {}\n\n    struct Token {\n        string serialNumber;\n        string name;\n        string information;\n    }\n\n    modifier adminOnly {\n        require(msg.sender == _owner, \"Admin only function\");\n        _;\n    }\n\n    modifier adminOrOwnerOnly(uint256 _tokenId) {\n        require(msg.sender == _owner || msg.sender == ownerOf(_tokenId), \"Admin or owner only function\");\n        _;\n    }\n\n    // When a product is sold, an accompanying token created\n    function mint(address _to, string memory _serialNumber, string memory _name) public adminOnly {\n        super._mint(_to, _supply);\n        Token memory newToken = Token(_serialNumber, _name, '');\n        tokens[_supply] = newToken;\n        serialNumbers[_serialNumber] = _supply++;\n        emit mintToken(_to, _serialNumber, _supply);\n    }\n\n    function transferFrom(address _from, address _to, uint256 _tokenId) public override adminOrOwnerOnly(_tokenId) {\n        super.transferFrom(_from, _to, _tokenId);\n        tokens[_tokenId].information = '';\n        emit transferEvent(_from, _to, _tokenId);\n    }\n\n    function updateInformation(uint256 _tokenId, string memory _information) public adminOrOwnerOnly(_tokenId) {\n        tokens[_tokenId].information = _information;\n    }\n\n    function viewSerialNumber(uint256 _tokenId)\n        public\n        view\n        returns (string memory)\n    {\n        return tokens[_tokenId].serialNumber;\n    }\n\n    function viewName(uint256 _tokenId) public view returns (string memory) {\n        return tokens[_tokenId].name;\n    }\n\n    function viewTokenId(string memory _serialNumber)\n        public\n        view\n        returns (uint256)\n    {\n        return serialNumbers[_serialNumber];\n    }\n\n    function getTotalSupply() public view returns (uint256) {\n        return _supply;\n    }\n\n    /*\n    function ownerOf(uint256 tokenId) public view virtual override returns (address) {\n        address owner = _owners[tokenId];\n        require(owner != address(0), \"ERC721: owner query for nonexistent token\");\n        return owner;\n    }\n    */\n}\n",
  "sourcePath": "/Users/lokki/Documents/GitHub/dApp/contracts/LuxChain.sol",
  "compiler": {
    "name": "solc",
    "version": "0.8.11+commit.d7f03943.Emscripten.clang"
  },
  "schemaVersion": "3.4.4",
  "updatedAt": "2022-03-30T06:09:20.240Z",
  "networkType": "ethereum",
  "devdoc": {
    "kind": "dev",
    "methods": {
      "approve(address,uint256)": {
        "details": "See {IERC721-approve}."
      },
      "balanceOf(address)": {
        "details": "See {IERC721-balanceOf}."
      },
      "getApproved(uint256)": {
        "details": "See {IERC721-getApproved}."
      },
      "isApprovedForAll(address,address)": {
        "details": "See {IERC721-isApprovedForAll}."
      },
      "name()": {
        "details": "See {IERC721Metadata-name}."
      },
      "ownerOf(uint256)": {
        "details": "See {IERC721-ownerOf}."
      },
      "safeTransferFrom(address,address,uint256)": {
        "details": "See {IERC721-safeTransferFrom}."
      },
      "safeTransferFrom(address,address,uint256,bytes)": {
        "details": "See {IERC721-safeTransferFrom}."
      },
      "setApprovalForAll(address,bool)": {
        "details": "See {IERC721-setApprovalForAll}."
      },
      "supportsInterface(bytes4)": {
        "details": "See {IERC165-supportsInterface}."
      },
      "symbol()": {
        "details": "See {IERC721Metadata-symbol}."
      },
      "tokenURI(uint256)": {
        "details": "See {IERC721Metadata-tokenURI}."
      }
    },
    "version": 1
  },
  "userdoc": {
    "kind": "user",
    "methods": {},
    "version": 1
  }
}