{
  "contractName": "LuxChain",
  "abi": [
    {
      "inputs": [
        {
          "internalType": "string",
          "name": "_name",
          "type": "string"
        },
        {
          "internalType": "string",
          "name": "_symbol",
          "type": "string"
        }
      ],
      "stateMutability": "nonpayable",
      "type": "constructor"
    },
    {
      "anonymous": false,
      "inputs": [
        {
          "indexed": true,
          "internalType": "address",
          "name": "owner",
          "type": "address"
        },
        {
          "indexed": true,
          "internalType": "address",
          "name": "approved",
          "type": "address"
        },
        {
          "indexed": true,
          "internalType": "uint256",
          "name": "tokenId",
          "type": "uint256"
        }
      ],
      "name": "Approval",
      "type": "event"
    },
    {
      "anonymous": false,
      "inputs": [
        {
          "indexed": true,
          "internalType": "address",
          "name": "owner",
          "type": "address"
        },
        {
          "indexed": true,
          "internalType": "address",
          "name": "operator",
          "type": "address"
        },
        {
          "indexed": false,
          "internalType": "bool",
          "name": "approved",
          "type": "bool"
        }
      ],
      "name": "ApprovalForAll",
      "type": "event"
    },
    {
      "anonymous": false,
      "inputs": [
        {
          "indexed": true,
          "internalType": "address",
          "name": "from",
          "type": "address"
        },
        {
          "indexed": true,
          "internalType": "address",
          "name": "to",
          "type": "address"
        },
        {
          "indexed": true,
          "internalType": "uint256",
          "name": "tokenId",
          "type": "uint256"
        }
      ],
      "name": "Transfer",
      "type": "event"
    },
    {
      "anonymous": false,
      "inputs": [
        {
          "indexed": false,
          "internalType": "address",
          "name": "_from",
          "type": "address"
        },
        {
          "indexed": false,
          "internalType": "address",
          "name": "_to",
          "type": "address"
        },
        {
          "indexed": false,
          "internalType": "uint256",
          "name": "_tokenId",
          "type": "uint256"
        }
      ],
      "name": "transferEvent",
      "type": "event"
    },
    {
      "inputs": [
        {
          "internalType": "address",
          "name": "to",
          "type": "address"
        },
        {
          "internalType": "uint256",
          "name": "tokenId",
          "type": "uint256"
        }
      ],
      "name": "approve",
      "outputs": [],
      "stateMutability": "nonpayable",
      "type": "function"
    },
    {
      "inputs": [
        {
          "internalType": "address",
          "name": "owner",
          "type": "address"
        }
      ],
      "name": "balanceOf",
      "outputs": [
        {
          "internalType": "uint256",
          "name": "",
          "type": "uint256"
        }
      ],
      "stateMutability": "view",
      "type": "function",
      "constant": true
    },
    {
      "inputs": [
        {
          "internalType": "uint256",
          "name": "tokenId",
          "type": "uint256"
        }
      ],
      "name": "getApproved",
      "outputs": [
        {
          "internalType": "address",
          "name": "",
          "type": "address"
        }
      ],
      "stateMutability": "view",
      "type": "function",
      "constant": true
    },
    {
      "inputs": [
        {
          "internalType": "address",
          "name": "owner",
          "type": "address"
        },
        {
          "internalType": "address",
          "name": "operator",
          "type": "address"
        }
      ],
      "name": "isApprovedForAll",
      "outputs": [
        {
          "internalType": "bool",
          "name": "",
          "type": "bool"
        }
      ],
      "stateMutability": "view",
      "type": "function",
      "constant": true
    },
    {
      "inputs": [],
      "name": "name",
      "outputs": [
        {
          "internalType": "string",
          "name": "",
          "type": "string"
        }
      ],
      "stateMutability": "view",
      "type": "function",
      "constant": true
    },
    {
      "inputs": [
        {
          "internalType": "uint256",
          "name": "tokenId",
          "type": "uint256"
        }
      ],
      "name": "ownerOf",
      "outputs": [
        {
          "internalType": "address",
          "name": "",
          "type": "address"
        }
      ],
      "stateMutability": "view",
      "type": "function",
      "constant": true
    },
    {
      "inputs": [
        {
          "internalType": "address",
          "name": "from",
          "type": "address"
        },
        {
          "internalType": "address",
          "name": "to",
          "type": "address"
        },
        {
          "internalType": "uint256",
          "name": "tokenId",
          "type": "uint256"
        }
      ],
      "name": "safeTransferFrom",
      "outputs": [],
      "stateMutability": "nonpayable",
      "type": "function"
    },
    {
      "inputs": [
        {
          "internalType": "address",
          "name": "from",
          "type": "address"
        },
        {
          "internalType": "address",
          "name": "to",
          "type": "address"
        },
        {
          "internalType": "uint256",
          "name": "tokenId",
          "type": "uint256"
        },
        {
          "internalType": "bytes",
          "name": "_data",
          "type": "bytes"
        }
      ],
      "name": "safeTransferFrom",
      "outputs": [],
      "stateMutability": "nonpayable",
      "type": "function"
    },
    {
      "inputs": [
        {
          "internalType": "address",
          "name": "operator",
          "type": "address"
        },
        {
          "internalType": "bool",
          "name": "approved",
          "type": "bool"
        }
      ],
      "name": "setApprovalForAll",
      "outputs": [],
      "stateMutability": "nonpayable",
      "type": "function"
    },
    {
      "inputs": [
        {
          "internalType": "bytes4",
          "name": "interfaceId",
          "type": "bytes4"
        }
      ],
      "name": "supportsInterface",
      "outputs": [
        {
          "internalType": "bool",
          "name": "",
          "type": "bool"
        }
      ],
      "stateMutability": "view",
      "type": "function",
      "constant": true
    },
    {
      "inputs": [],
      "name": "symbol",
      "outputs": [
        {
          "internalType": "string",
          "name": "",
          "type": "string"
        }
      ],
      "stateMutability": "view",
      "type": "function",
      "constant": true
    },
    {
      "inputs": [
        {
          "internalType": "uint256",
          "name": "tokenId",
          "type": "uint256"
        }
      ],
      "name": "tokenURI",
      "outputs": [
        {
          "internalType": "string",
          "name": "",
          "type": "string"
        }
      ],
      "stateMutability": "view",
      "type": "function",
      "constant": true
    },
    {
      "inputs": [
        {
          "internalType": "address",
          "name": "_to",
          "type": "address"
        },
        {
          "internalType": "string",
          "name": "_serialNumber",
          "type": "string"
        },
        {
          "internalType": "string",
          "name": "_name",
          "type": "string"
        }
      ],
      "name": "mint",
      "outputs": [],
      "stateMutability": "nonpayable",
      "type": "function"
    },
    {
      "inputs": [
        {
          "internalType": "address",
          "name": "_from",
          "type": "address"
        },
        {
          "internalType": "address",
          "name": "_to",
          "type": "address"
        },
        {
          "internalType": "uint256",
          "name": "_tokenId",
          "type": "uint256"
        }
      ],
      "name": "transferFrom",
      "outputs": [],
      "stateMutability": "nonpayable",
      "type": "function"
    },
    {
      "inputs": [
        {
          "internalType": "uint256",
          "name": "_tokenId",
          "type": "uint256"
        }
      ],
      "name": "viewSerialNumber",
      "outputs": [
        {
          "internalType": "string",
          "name": "",
          "type": "string"
        }
      ],
      "stateMutability": "view",
      "type": "function",
      "constant": true
    },
    {
      "inputs": [
        {
          "internalType": "uint256",
          "name": "_tokenId",
          "type": "uint256"
        }
      ],
      "name": "viewName",
      "outputs": [
        {
          "internalType": "string",
          "name": "",
          "type": "string"
        }
      ],
      "stateMutability": "view",
      "type": "function",
      "constant": true
    },
    {
      "inputs": [
        {
          "internalType": "string",
          "name": "_serialNumber",
          "type": "string"
        }
      ],
      "name": "viewTokenId",
      "outputs": [
        {
          "internalType": "uint256",
          "name": "",
          "type": "uint256"
        }
      ],
      "stateMutability": "view",
      "type": "function",
      "constant": true
    },
    {
      "inputs": [],
      "name": "getTotalSupply",
      "outputs": [
        {
          "internalType": "uint256",
          "name": "",
          "type": "uint256"
        }
      ],
      "stateMutability": "view",
      "type": "function",
      "constant": true
    }
  ],
  "bytecode": "0x608060405233600660006101000a81548173ffffffffffffffffffffffffffffffffffffffff021916908373ffffffffffffffffffffffffffffffffffffffff1602179055503480156200005257600080fd5b50604051620030e3380380620030e3833981810160405281019062000078919062000303565b8181816000908051906020019062000092929190620000b6565b508060019080519060200190620000ab929190620000b6565b5050505050620003ed565b828054620000c490620003b7565b90600052602060002090601f016020900481019282620000e8576000855562000134565b82601f106200010357805160ff191683800117855562000134565b8280016001018555821562000134579182015b828111156200013357825182559160200191906001019062000116565b5b50905062000143919062000147565b5090565b5b808211156200016257600081600090555060010162000148565b5090565b6000604051905090565b600080fd5b600080fd5b600080fd5b600080fd5b6000601f19601f8301169050919050565b7f4e487b7100000000000000000000000000000000000000000000000000000000600052604160045260246000fd5b620001cf8262000184565b810181811067ffffffffffffffff82111715620001f157620001f062000195565b5b80604052505050565b60006200020662000166565b9050620002148282620001c4565b919050565b600067ffffffffffffffff82111562000237576200023662000195565b5b620002428262000184565b9050602081019050919050565b60005b838110156200026f57808201518184015260208101905062000252565b838111156200027f576000848401525b50505050565b60006200029c620002968462000219565b620001fa565b905082815260208101848484011115620002bb57620002ba6200017f565b5b620002c88482856200024f565b509392505050565b600082601f830112620002e857620002e76200017a565b5b8151620002fa84826020860162000285565b91505092915050565b600080604083850312156200031d576200031c62000170565b5b600083015167ffffffffffffffff8111156200033e576200033d62000175565b5b6200034c85828601620002d0565b925050602083015167ffffffffffffffff81111562000370576200036f62000175565b5b6200037e85828601620002d0565b9150509250929050565b7f4e487b7100000000000000000000000000000000000000000000000000000000600052602260045260246000fd5b60006002820490506001821680620003d057607f821691505b60208210811415620003e757620003e662000388565b5b50919050565b612ce680620003fd6000396000f3fe608060405234801561001057600080fd5b50600436106101165760003560e01c806370a08231116100a2578063b88d4fde11610071578063b88d4fde14610303578063c4e41b221461031f578063c87b56dd1461033d578063d340c3c51461036d578063e985e9c51461039d57610116565b806370a082311461027d57806395d89b41146102ad57806399071190146102cb578063a22cb465146102e757610116565b80631b868d00116100e95780631b868d00146101b5578063207b8509146101e557806323b872dd1461021557806342842e0e146102315780636352211e1461024d57610116565b806301ffc9a71461011b57806306fdde031461014b578063081812fc14610169578063095ea7b314610199575b600080fd5b61013560048036038101906101309190611aa6565b6103cd565b6040516101429190611aee565b60405180910390f35b6101536104af565b6040516101609190611ba2565b60405180910390f35b610183600480360381019061017e9190611bfa565b610541565b6040516101909190611c68565b60405180910390f35b6101b360048036038101906101ae9190611caf565b6105c6565b005b6101cf60048036038101906101ca9190611bfa565b6106de565b6040516101dc9190611ba2565b60405180910390f35b6101ff60048036038101906101fa9190611e24565b610786565b60405161020c9190611e7c565b60405180910390f35b61022f600480360381019061022a9190611e97565b6107ae565b005b61024b60048036038101906102469190611e97565b6107f9565b005b61026760048036038101906102629190611bfa565b610819565b6040516102749190611c68565b60405180910390f35b61029760048036038101906102929190611eea565b6108cb565b6040516102a49190611e7c565b60405180910390f35b6102b5610983565b6040516102c29190611ba2565b60405180910390f35b6102e560048036038101906102e09190611f17565b610a15565b005b61030160048036038101906102fc9190611fce565b610b26565b005b61031d600480360381019061031891906120af565b610b3c565b005b610327610b9e565b6040516103349190611e7c565b60405180910390f35b61035760048036038101906103529190611bfa565b610ba8565b6040516103649190611ba2565b60405180910390f35b61038760048036038101906103829190611bfa565b610c4f565b6040516103949190611ba2565b60405180910390f35b6103b760048036038101906103b29190612132565b610cf7565b6040516103c49190611aee565b60405180910390f35b60007f80ac58cd000000000000000000000000000000000000000000000000000000007bffffffffffffffffffffffffffffffffffffffffffffffffffffffff1916827bffffffffffffffffffffffffffffffffffffffffffffffffffffffff1916148061049857507f5b5e139f000000000000000000000000000000000000000000000000000000007bffffffffffffffffffffffffffffffffffffffffffffffffffffffff1916827bffffffffffffffffffffffffffffffffffffffffffffffffffffffff1916145b806104a857506104a782610d8b565b5b9050919050565b6060600080546104be906121a1565b80601f01602080910402602001604051908101604052809291908181526020018280546104ea906121a1565b80156105375780601f1061050c57610100808354040283529160200191610537565b820191906000526020600020905b81548152906001019060200180831161051a57829003601f168201915b5050505050905090565b600061054c82610df5565b61058b576040517f08c379a000000000000000000000000000000000000000000000000000000000815260040161058290612245565b60405180910390fd5b6004600083815260200190815260200160002060009054906101000a900473ffffffffffffffffffffffffffffffffffffffff169050919050565b60006105d182610819565b90508073ffffffffffffffffffffffffffffffffffffffff168373ffffffffffffffffffffffffffffffffffffffff161415610642576040517f08c379a0000000000000000000000000000000000000000000000000000000008152600401610639906122d7565b60405180910390fd5b8073ffffffffffffffffffffffffffffffffffffffff16610661610e61565b73ffffffffffffffffffffffffffffffffffffffff161480610690575061068f8161068a610e61565b610cf7565b5b6106cf576040517f08c379a00000000000000000000000000000000000000000000000000000000081526004016106c690612369565b60405180910390fd5b6106d98383610e69565b505050565b6060600860008381526020019081526020016000206001018054610701906121a1565b80601f016020809104026020016040519081016040528092919081815260200182805461072d906121a1565b801561077a5780601f1061074f5761010080835404028352916020019161077a565b820191906000526020600020905b81548152906001019060200180831161075d57829003601f168201915b50505050509050919050565b600060098260405161079891906123c5565b9081526020016040518091039020549050919050565b6107b9838383610f22565b7f5d439cf3a1f6215b41908e5b0b300f39679a3ff1cc010691c1d4ec4d0e2a4ebb8383836040516107ec939291906123dc565b60405180910390a1505050565b61081483838360405180602001604052806000815250610b3c565b505050565b6000806002600084815260200190815260200160002060009054906101000a900473ffffffffffffffffffffffffffffffffffffffff169050600073ffffffffffffffffffffffffffffffffffffffff168173ffffffffffffffffffffffffffffffffffffffff1614156108c2576040517f08c379a00000000000000000000000000000000000000000000000000000000081526004016108b990612485565b60405180910390fd5b80915050919050565b60008073ffffffffffffffffffffffffffffffffffffffff168273ffffffffffffffffffffffffffffffffffffffff16141561093c576040517f08c379a000000000000000000000000000000000000000000000000000000000815260040161093390612517565b60405180910390fd5b600360008373ffffffffffffffffffffffffffffffffffffffff1673ffffffffffffffffffffffffffffffffffffffff168152602001908152602001600020549050919050565b606060018054610992906121a1565b80601f01602080910402602001604051908101604052809291908181526020018280546109be906121a1565b8015610a0b5780601f106109e057610100808354040283529160200191610a0b565b820191906000526020600020905b8154815290600101906020018083116109ee57829003601f168201915b5050505050905090565b600660009054906101000a900473ffffffffffffffffffffffffffffffffffffffff1673ffffffffffffffffffffffffffffffffffffffff163373ffffffffffffffffffffffffffffffffffffffff1614610a6f57600080fd5b610a7b83600754610f82565b60006040518060400160405280848152602001838152509050806008600060075481526020019081526020016000206000820151816000019080519060200190610ac6929190611997565b506020820151816001019080519060200190610ae3929190611997565b5090505060076000815480929190610afa90612566565b91905055600984604051610b0e91906123c5565b90815260200160405180910390208190555050505050565b610b38610b31610e61565b838361115c565b5050565b610b4d610b47610e61565b836112c9565b610b8c576040517f08c379a0000000000000000000000000000000000000000000000000000000008152600401610b8390612621565b60405180910390fd5b610b98848484846113a7565b50505050565b6000600754905090565b6060610bb382610df5565b610bf2576040517f08c379a0000000000000000000000000000000000000000000000000000000008152600401610be9906126b3565b60405180910390fd5b6000610bfc611403565b90506000815111610c1c5760405180602001604052806000815250610c47565b80610c268461141a565b604051602001610c379291906126d3565b6040516020818303038152906040525b915050919050565b6060600860008381526020019081526020016000206000018054610c72906121a1565b80601f0160208091040260200160405190810160405280929190818152602001828054610c9e906121a1565b8015610ceb5780601f10610cc057610100808354040283529160200191610ceb565b820191906000526020600020905b815481529060010190602001808311610cce57829003601f168201915b50505050509050919050565b6000600560008473ffffffffffffffffffffffffffffffffffffffff1673ffffffffffffffffffffffffffffffffffffffff16815260200190815260200160002060008373ffffffffffffffffffffffffffffffffffffffff1673ffffffffffffffffffffffffffffffffffffffff16815260200190815260200160002060009054906101000a900460ff16905092915050565b60007f01ffc9a7000000000000000000000000000000000000000000000000000000007bffffffffffffffffffffffffffffffffffffffffffffffffffffffff1916827bffffffffffffffffffffffffffffffffffffffffffffffffffffffff1916149050919050565b60008073ffffffffffffffffffffffffffffffffffffffff166002600084815260200190815260200160002060009054906101000a900473ffffffffffffffffffffffffffffffffffffffff1673ffffffffffffffffffffffffffffffffffffffff1614159050919050565b600033905090565b816004600083815260200190815260200160002060006101000a81548173ffffffffffffffffffffffffffffffffffffffff021916908373ffffffffffffffffffffffffffffffffffffffff160217905550808273ffffffffffffffffffffffffffffffffffffffff16610edc83610819565b73ffffffffffffffffffffffffffffffffffffffff167f8c5be1e5ebec7d5bd14f71427d1e84f3dd0314c0f7b2291e5b200ac8c7c3b92560405160405180910390a45050565b610f33610f2d610e61565b826112c9565b610f72576040517f08c379a0000000000000000000000000000000000000000000000000000000008152600401610f6990612621565b60405180910390fd5b610f7d83838361157b565b505050565b600073ffffffffffffffffffffffffffffffffffffffff168273ffffffffffffffffffffffffffffffffffffffff161415610ff2576040517f08c379a0000000000000000000000000000000000000000000000000000000008152600401610fe990612743565b60405180910390fd5b610ffb81610df5565b1561103b576040517f08c379a0000000000000000000000000000000000000000000000000000000008152600401611032906127af565b60405180910390fd5b611047600083836117e2565b6001600360008473ffffffffffffffffffffffffffffffffffffffff1673ffffffffffffffffffffffffffffffffffffffff168152602001908152602001600020600082825461109791906127cf565b92505081905550816002600083815260200190815260200160002060006101000a81548173ffffffffffffffffffffffffffffffffffffffff021916908373ffffffffffffffffffffffffffffffffffffffff160217905550808273ffffffffffffffffffffffffffffffffffffffff16600073ffffffffffffffffffffffffffffffffffffffff167fddf252ad1be2c89b69c2b068fc378daa952ba7f163c4a11628f55a4df523b3ef60405160405180910390a4611158600083836117e7565b5050565b8173ffffffffffffffffffffffffffffffffffffffff168373ffffffffffffffffffffffffffffffffffffffff1614156111cb576040517f08c379a00000000000000000000000000000000000000000000000000000000081526004016111c290612871565b60405180910390fd5b80600560008573ffffffffffffffffffffffffffffffffffffffff1673ffffffffffffffffffffffffffffffffffffffff16815260200190815260200160002060008473ffffffffffffffffffffffffffffffffffffffff1673ffffffffffffffffffffffffffffffffffffffff16815260200190815260200160002060006101000a81548160ff0219169083151502179055508173ffffffffffffffffffffffffffffffffffffffff168373ffffffffffffffffffffffffffffffffffffffff167f17307eab39ab6107e8899845ad3d59bd9653f200f220920489ca2b5937696c31836040516112bc9190611aee565b60405180910390a3505050565b60006112d482610df5565b611313576040517f08c379a000000000000000000000000000000000000000000000000000000000815260040161130a90612903565b60405180910390fd5b600061131e83610819565b90508073ffffffffffffffffffffffffffffffffffffffff168473ffffffffffffffffffffffffffffffffffffffff16148061138d57508373ffffffffffffffffffffffffffffffffffffffff1661137584610541565b73ffffffffffffffffffffffffffffffffffffffff16145b8061139e575061139d8185610cf7565b5b91505092915050565b6113b284848461157b565b6113be848484846117ec565b6113fd576040517f08c379a00000000000000000000000000000000000000000000000000000000081526004016113f490612995565b60405180910390fd5b50505050565b606060405180602001604052806000815250905090565b60606000821415611462576040518060400160405280600181526020017f30000000000000000000000000000000000000000000000000000000000000008152509050611576565b600082905060005b6000821461149457808061147d90612566565b915050600a8261148d91906129e4565b915061146a565b60008167ffffffffffffffff8111156114b0576114af611cf9565b5b6040519080825280601f01601f1916602001820160405280156114e25781602001600182028036833780820191505090505b5090505b6000851461156f576001826114fb9190612a15565b9150600a8561150a9190612a49565b603061151691906127cf565b60f81b81838151811061152c5761152b612a7a565b5b60200101907effffffffffffffffffffffffffffffffffffffffffffffffffffffffffffff1916908160001a905350600a8561156891906129e4565b94506114e6565b8093505050505b919050565b8273ffffffffffffffffffffffffffffffffffffffff1661159b82610819565b73ffffffffffffffffffffffffffffffffffffffff16146115f1576040517f08c379a00000000000000000000000000000000000000000000000000000000081526004016115e890612b1b565b60405180910390fd5b600073ffffffffffffffffffffffffffffffffffffffff168273ffffffffffffffffffffffffffffffffffffffff161415611661576040517f08c379a000000000000000000000000000000000000000000000000000000000815260040161165890612bad565b60405180910390fd5b61166c8383836117e2565b611677600082610e69565b6001600360008573ffffffffffffffffffffffffffffffffffffffff1673ffffffffffffffffffffffffffffffffffffffff16815260200190815260200160002060008282546116c79190612a15565b925050819055506001600360008473ffffffffffffffffffffffffffffffffffffffff1673ffffffffffffffffffffffffffffffffffffffff168152602001908152602001600020600082825461171e91906127cf565b92505081905550816002600083815260200190815260200160002060006101000a81548173ffffffffffffffffffffffffffffffffffffffff021916908373ffffffffffffffffffffffffffffffffffffffff160217905550808273ffffffffffffffffffffffffffffffffffffffff168473ffffffffffffffffffffffffffffffffffffffff167fddf252ad1be2c89b69c2b068fc378daa952ba7f163c4a11628f55a4df523b3ef60405160405180910390a46117dd8383836117e7565b505050565b505050565b505050565b600061180d8473ffffffffffffffffffffffffffffffffffffffff16611974565b15611967578373ffffffffffffffffffffffffffffffffffffffff1663150b7a02611836610e61565b8786866040518563ffffffff1660e01b81526004016118589493929190612c22565b6020604051808303816000875af192505050801561189457506040513d601f19601f820116820180604052508101906118919190612c83565b60015b611917573d80600081146118c4576040519150601f19603f3d011682016040523d82523d6000602084013e6118c9565b606091505b5060008151141561190f576040517f08c379a000000000000000000000000000000000000000000000000000000000815260040161190690612995565b60405180910390fd5b805181602001fd5b63150b7a0260e01b7bffffffffffffffffffffffffffffffffffffffffffffffffffffffff1916817bffffffffffffffffffffffffffffffffffffffffffffffffffffffff19161491505061196c565b600190505b949350505050565b6000808273ffffffffffffffffffffffffffffffffffffffff163b119050919050565b8280546119a3906121a1565b90600052602060002090601f0160209004810192826119c55760008555611a0c565b82601f106119de57805160ff1916838001178555611a0c565b82800160010185558215611a0c579182015b82811115611a0b5782518255916020019190600101906119f0565b5b509050611a199190611a1d565b5090565b5b80821115611a36576000816000905550600101611a1e565b5090565b6000604051905090565b600080fd5b600080fd5b60007fffffffff0000000000000000000000000000000000000000000000000000000082169050919050565b611a8381611a4e565b8114611a8e57600080fd5b50565b600081359050611aa081611a7a565b92915050565b600060208284031215611abc57611abb611a44565b5b6000611aca84828501611a91565b91505092915050565b60008115159050919050565b611ae881611ad3565b82525050565b6000602082019050611b036000830184611adf565b92915050565b600081519050919050565b600082825260208201905092915050565b60005b83811015611b43578082015181840152602081019050611b28565b83811115611b52576000848401525b50505050565b6000601f19601f8301169050919050565b6000611b7482611b09565b611b7e8185611b14565b9350611b8e818560208601611b25565b611b9781611b58565b840191505092915050565b60006020820190508181036000830152611bbc8184611b69565b905092915050565b6000819050919050565b611bd781611bc4565b8114611be257600080fd5b50565b600081359050611bf481611bce565b92915050565b600060208284031215611c1057611c0f611a44565b5b6000611c1e84828501611be5565b91505092915050565b600073ffffffffffffffffffffffffffffffffffffffff82169050919050565b6000611c5282611c27565b9050919050565b611c6281611c47565b82525050565b6000602082019050611c7d6000830184611c59565b92915050565b611c8c81611c47565b8114611c9757600080fd5b50565b600081359050611ca981611c83565b92915050565b60008060408385031215611cc657611cc5611a44565b5b6000611cd485828601611c9a565b9250506020611ce585828601611be5565b9150509250929050565b600080fd5b600080fd5b7f4e487b7100000000000000000000000000000000000000000000000000000000600052604160045260246000fd5b611d3182611b58565b810181811067ffffffffffffffff82111715611d5057611d4f611cf9565b5b80604052505050565b6000611d63611a3a565b9050611d6f8282611d28565b919050565b600067ffffffffffffffff821115611d8f57611d8e611cf9565b5b611d9882611b58565b9050602081019050919050565b82818337600083830152505050565b6000611dc7611dc284611d74565b611d59565b905082815260208101848484011115611de357611de2611cf4565b5b611dee848285611da5565b509392505050565b600082601f830112611e0b57611e0a611cef565b5b8135611e1b848260208601611db4565b91505092915050565b600060208284031215611e3a57611e39611a44565b5b600082013567ffffffffffffffff811115611e5857611e57611a49565b5b611e6484828501611df6565b91505092915050565b611e7681611bc4565b82525050565b6000602082019050611e916000830184611e6d565b92915050565b600080600060608486031215611eb057611eaf611a44565b5b6000611ebe86828701611c9a565b9350506020611ecf86828701611c9a565b9250506040611ee086828701611be5565b9150509250925092565b600060208284031215611f0057611eff611a44565b5b6000611f0e84828501611c9a565b91505092915050565b600080600060608486031215611f3057611f2f611a44565b5b6000611f3e86828701611c9a565b935050602084013567ffffffffffffffff811115611f5f57611f5e611a49565b5b611f6b86828701611df6565b925050604084013567ffffffffffffffff811115611f8c57611f8b611a49565b5b611f9886828701611df6565b9150509250925092565b611fab81611ad3565b8114611fb657600080fd5b50565b600081359050611fc881611fa2565b92915050565b60008060408385031215611fe557611fe4611a44565b5b6000611ff385828601611c9a565b925050602061200485828601611fb9565b9150509250929050565b600067ffffffffffffffff82111561202957612028611cf9565b5b61203282611b58565b9050602081019050919050565b600061205261204d8461200e565b611d59565b90508281526020810184848401111561206e5761206d611cf4565b5b612079848285611da5565b509392505050565b600082601f83011261209657612095611cef565b5b81356120a684826020860161203f565b91505092915050565b600080600080608085870312156120c9576120c8611a44565b5b60006120d787828801611c9a565b94505060206120e887828801611c9a565b93505060406120f987828801611be5565b925050606085013567ffffffffffffffff81111561211a57612119611a49565b5b61212687828801612081565b91505092959194509250565b6000806040838503121561214957612148611a44565b5b600061215785828601611c9a565b925050602061216885828601611c9a565b9150509250929050565b7f4e487b7100000000000000000000000000000000000000000000000000000000600052602260045260246000fd5b600060028204905060018216806121b957607f821691505b602082108114156121cd576121cc612172565b5b50919050565b7f4552433732313a20617070726f76656420717565727920666f72206e6f6e657860008201527f697374656e7420746f6b656e0000000000000000000000000000000000000000602082015250565b600061222f602c83611b14565b915061223a826121d3565b604082019050919050565b6000602082019050818103600083015261225e81612222565b9050919050565b7f4552433732313a20617070726f76616c20746f2063757272656e74206f776e6560008201527f7200000000000000000000000000000000000000000000000000000000000000602082015250565b60006122c1602183611b14565b91506122cc82612265565b604082019050919050565b600060208201905081810360008301526122f0816122b4565b9050919050565b7f4552433732313a20617070726f76652063616c6c6572206973206e6f74206f7760008201527f6e6572206e6f7220617070726f76656420666f7220616c6c0000000000000000602082015250565b6000612353603883611b14565b915061235e826122f7565b604082019050919050565b6000602082019050818103600083015261238281612346565b9050919050565b600081905092915050565b600061239f82611b09565b6123a98185612389565b93506123b9818560208601611b25565b80840191505092915050565b60006123d18284612394565b915081905092915050565b60006060820190506123f16000830186611c59565b6123fe6020830185611c59565b61240b6040830184611e6d565b949350505050565b7f4552433732313a206f776e657220717565727920666f72206e6f6e657869737460008201527f656e7420746f6b656e0000000000000000000000000000000000000000000000602082015250565b600061246f602983611b14565b915061247a82612413565b604082019050919050565b6000602082019050818103600083015261249e81612462565b9050919050565b7f4552433732313a2062616c616e636520717565727920666f7220746865207a6560008201527f726f206164647265737300000000000000000000000000000000000000000000602082015250565b6000612501602a83611b14565b915061250c826124a5565b604082019050919050565b60006020820190508181036000830152612530816124f4565b9050919050565b7f4e487b7100000000000000000000000000000000000000000000000000000000600052601160045260246000fd5b600061257182611bc4565b91507fffffffffffffffffffffffffffffffffffffffffffffffffffffffffffffffff8214156125a4576125a3612537565b5b600182019050919050565b7f4552433732313a207472616e736665722063616c6c6572206973206e6f74206f60008201527f776e6572206e6f7220617070726f766564000000000000000000000000000000602082015250565b600061260b603183611b14565b9150612616826125af565b604082019050919050565b6000602082019050818103600083015261263a816125fe565b9050919050565b7f4552433732314d657461646174613a2055524920717565727920666f72206e6f60008201527f6e6578697374656e7420746f6b656e0000000000000000000000000000000000602082015250565b600061269d602f83611b14565b91506126a882612641565b604082019050919050565b600060208201905081810360008301526126cc81612690565b9050919050565b60006126df8285612394565b91506126eb8284612394565b91508190509392505050565b7f4552433732313a206d696e7420746f20746865207a65726f2061646472657373600082015250565b600061272d602083611b14565b9150612738826126f7565b602082019050919050565b6000602082019050818103600083015261275c81612720565b9050919050565b7f4552433732313a20746f6b656e20616c7265616479206d696e74656400000000600082015250565b6000612799601c83611b14565b91506127a482612763565b602082019050919050565b600060208201905081810360008301526127c88161278c565b9050919050565b60006127da82611bc4565b91506127e583611bc4565b9250827fffffffffffffffffffffffffffffffffffffffffffffffffffffffffffffffff0382111561281a57612819612537565b5b828201905092915050565b7f4552433732313a20617070726f766520746f2063616c6c657200000000000000600082015250565b600061285b601983611b14565b915061286682612825565b602082019050919050565b6000602082019050818103600083015261288a8161284e565b9050919050565b7f4552433732313a206f70657261746f7220717565727920666f72206e6f6e657860008201527f697374656e7420746f6b656e0000000000000000000000000000000000000000602082015250565b60006128ed602c83611b14565b91506128f882612891565b604082019050919050565b6000602082019050818103600083015261291c816128e0565b9050919050565b7f4552433732313a207472616e7366657220746f206e6f6e20455243373231526560008201527f63656976657220696d706c656d656e7465720000000000000000000000000000602082015250565b600061297f603283611b14565b915061298a82612923565b604082019050919050565b600060208201905081810360008301526129ae81612972565b9050919050565b7f4e487b7100000000000000000000000000000000000000000000000000000000600052601260045260246000fd5b60006129ef82611bc4565b91506129fa83611bc4565b925082612a0a57612a096129b5565b5b828204905092915050565b6000612a2082611bc4565b9150612a2b83611bc4565b925082821015612a3e57612a3d612537565b5b828203905092915050565b6000612a5482611bc4565b9150612a5f83611bc4565b925082612a6f57612a6e6129b5565b5b828206905092915050565b7f4e487b7100000000000000000000000000000000000000000000000000000000600052603260045260246000fd5b7f4552433732313a207472616e736665722066726f6d20696e636f72726563742060008201527f6f776e6572000000000000000000000000000000000000000000000000000000602082015250565b6000612b05602583611b14565b9150612b1082612aa9565b604082019050919050565b60006020820190508181036000830152612b3481612af8565b9050919050565b7f4552433732313a207472616e7366657220746f20746865207a65726f2061646460008201527f7265737300000000000000000000000000000000000000000000000000000000602082015250565b6000612b97602483611b14565b9150612ba282612b3b565b604082019050919050565b60006020820190508181036000830152612bc681612b8a565b9050919050565b600081519050919050565b600082825260208201905092915050565b6000612bf482612bcd565b612bfe8185612bd8565b9350612c0e818560208601611b25565b612c1781611b58565b840191505092915050565b6000608082019050612c376000830187611c59565b612c446020830186611c59565b612c516040830185611e6d565b8181036060830152612c638184612be9565b905095945050505050565b600081519050612c7d81611a7a565b92915050565b600060208284031215612c9957612c98611a44565b5b6000612ca784828501612c6e565b9150509291505056fea2646970667358221220e96204f107ec1164666d2cea02d535491beb1d7cbd2a89bf837302911f68d8e664736f6c634300080b0033",
  "immutableReferences": {},
  "source": "//SPDX-License-Identifier: MIT\npragma solidity ^0.8.11;\nimport \"@openzeppelin/contracts/token/ERC721/ERC721.sol\";\n\ncontract LuxChain is ERC721 {\n    address _owner = msg.sender;\n    uint256 _supply;\n\n    mapping(uint256 => Token) tokens;\n    mapping(string => uint256) serialNumbers;\n\n    event transferEvent(address _from, address _to, uint256 _tokenId);\n\n    constructor(string memory _name, string memory _symbol)\n        ERC721(_name, _symbol)\n    {}\n\n    struct Token {\n        string serialNumber;\n        string name;\n    }\n\n    modifier adminOnly() {\n        require(msg.sender == _owner);\n        _;\n    }\n\n    // When a product is sold, an accompanying token created\n    function mint(\n        address _to,\n        string memory _serialNumber,\n        string memory _name\n    ) public adminOnly {\n        super._mint(_to, _supply);\n        Token memory newToken = Token(_serialNumber, _name);\n        tokens[_supply] = newToken;\n        serialNumbers[_serialNumber] = _supply++;\n    }\n\n    function transferFrom(\n        address _from,\n        address _to,\n        uint256 _tokenId\n    ) public override {\n        super.transferFrom(_from, _to, _tokenId);\n        emit transferEvent(_from, _to, _tokenId);\n    }\n\n    function viewSerialNumber(uint256 _tokenId)\n        public\n        view\n        returns (string memory)\n    {\n        return tokens[_tokenId].serialNumber;\n    }\n\n    function viewName(uint256 _tokenId) public view returns (string memory) {\n        return tokens[_tokenId].name;\n    }\n\n    function viewTokenId(string memory _serialNumber)\n        public\n        view\n        returns (uint256)\n    {\n        return serialNumbers[_serialNumber];\n    }\n\n    function getTotalSupply() public view returns (uint256) {\n        return _supply;\n    }\n\n    /*\n    function ownerOf(uint256 tokenId) public view virtual override returns (address) {\n        address owner = _owners[tokenId];\n        require(owner != address(0), \"ERC721: owner query for nonexistent token\");\n        return owner;\n    }\n    */\n}\n",
  "sourcePath": "/Users/lokki/Documents/GitHub/dApp/contracts/LuxChain.sol",
  "compiler": {
    "name": "solc",
    "version": "0.8.11+commit.d7f03943.Emscripten.clang"
  },
  "schemaVersion": "3.4.4",
  "updatedAt": "2022-03-29T11:09:44.986Z",
  "networkType": "ethereum",
  "devdoc": {
    "kind": "dev",
    "methods": {
      "approve(address,uint256)": {
        "details": "See {IERC721-approve}."
      },
      "balanceOf(address)": {
        "details": "See {IERC721-balanceOf}."
      },
      "getApproved(uint256)": {
        "details": "See {IERC721-getApproved}."
      },
      "isApprovedForAll(address,address)": {
        "details": "See {IERC721-isApprovedForAll}."
      },
      "name()": {
        "details": "See {IERC721Metadata-name}."
      },
      "ownerOf(uint256)": {
        "details": "See {IERC721-ownerOf}."
      },
      "safeTransferFrom(address,address,uint256)": {
        "details": "See {IERC721-safeTransferFrom}."
      },
      "safeTransferFrom(address,address,uint256,bytes)": {
        "details": "See {IERC721-safeTransferFrom}."
      },
      "setApprovalForAll(address,bool)": {
        "details": "See {IERC721-setApprovalForAll}."
      },
      "supportsInterface(bytes4)": {
        "details": "See {IERC165-supportsInterface}."
      },
      "symbol()": {
        "details": "See {IERC721Metadata-symbol}."
      },
      "tokenURI(uint256)": {
        "details": "See {IERC721Metadata-tokenURI}."
      }
    },
    "version": 1
  },
  "userdoc": {
    "kind": "user",
    "methods": {},
    "version": 1
  }
}